{
  "contractName": "AddressSetLib",
  "abi": [
    {
      "constant": true,
      "inputs": [
        {
          "name": "self",
          "type": "AddressSetLib.AddressSet storage"
        }
      ],
      "name": "size",
      "outputs": [
        {
          "name": "",
          "type": "uint256"
        }
      ],
      "payable": false,
      "stateMutability": "view",
      "type": "function"
    },
    {
      "constant": false,
      "inputs": [
        {
          "name": "self",
          "type": "AddressSetLib.AddressSet storage"
        },
        {
          "name": "value",
          "type": "address"
        }
      ],
      "name": "add",
      "outputs": [
        {
          "name": "",
          "type": "bool"
        }
      ],
      "payable": false,
      "stateMutability": "nonpayable",
      "type": "function"
    },
    {
      "constant": false,
      "inputs": [
        {
          "name": "self",
          "type": "AddressSetLib.AddressSet storage"
        },
        {
          "name": "value",
          "type": "address"
        }
      ],
      "name": "remove",
      "outputs": [
        {
          "name": "",
          "type": "bool"
        }
      ],
      "payable": false,
      "stateMutability": "nonpayable",
      "type": "function"
    },
    {
      "constant": false,
      "inputs": [
        {
          "name": "self",
          "type": "AddressSetLib.AddressSet storage"
        },
        {
          "name": "index",
          "type": "uint256"
        },
        {
          "name": "value",
          "type": "address"
        }
      ],
      "name": "set",
      "outputs": [
        {
          "name": "",
          "type": "bool"
        }
      ],
      "payable": false,
      "stateMutability": "nonpayable",
      "type": "function"
    },
    {
      "constant": false,
      "inputs": [
        {
          "name": "self",
          "type": "AddressSetLib.AddressSet storage"
        },
        {
          "name": "old",
          "type": "address"
        },
        {
          "name": "nu",
          "type": "address"
        }
      ],
      "name": "replace",
      "outputs": [
        {
          "name": "",
          "type": "bool"
        }
      ],
      "payable": false,
      "stateMutability": "nonpayable",
      "type": "function"
    },
    {
      "constant": true,
      "inputs": [
        {
          "name": "self",
          "type": "AddressSetLib.AddressSet storage"
        },
        {
          "name": "value",
          "type": "address"
        }
      ],
      "name": "indexOf",
      "outputs": [
        {
          "name": "",
          "type": "uint256"
        }
      ],
      "payable": false,
      "stateMutability": "view",
      "type": "function"
    },
    {
      "constant": true,
      "inputs": [
        {
          "name": "self",
          "type": "AddressSetLib.AddressSet storage"
        }
      ],
      "name": "last",
      "outputs": [
        {
          "name": "",
          "type": "address"
        }
      ],
      "payable": false,
      "stateMutability": "view",
      "type": "function"
    },
    {
      "constant": true,
      "inputs": [
        {
          "name": "self",
          "type": "AddressSetLib.AddressSet storage"
        },
        {
          "name": "index",
          "type": "uint256"
        }
      ],
      "name": "get",
      "outputs": [
        {
          "name": "",
          "type": "address"
        }
      ],
      "payable": false,
      "stateMutability": "view",
      "type": "function"
    },
    {
      "constant": true,
      "inputs": [
        {
          "name": "self",
          "type": "AddressSetLib.AddressSet storage"
        },
        {
          "name": "value",
          "type": "address"
        }
      ],
      "name": "contains",
      "outputs": [
        {
          "name": "",
          "type": "bool"
        }
      ],
      "payable": false,
      "stateMutability": "view",
      "type": "function"
    },
    {
      "constant": true,
      "inputs": [
        {
          "name": "self",
          "type": "AddressSetLib.AddressSet storage"
        }
      ],
      "name": "first",
      "outputs": [
        {
          "name": "",
          "type": "address"
        }
      ],
      "payable": false,
      "stateMutability": "view",
      "type": "function"
    },
    {
      "constant": false,
      "inputs": [
        {
          "name": "self",
          "type": "AddressSetLib.AddressSet storage"
        },
        {
          "name": "index",
          "type": "uint256"
        }
      ],
      "name": "pop",
      "outputs": [
        {
          "name": "",
          "type": "address"
        }
      ],
      "payable": false,
      "stateMutability": "nonpayable",
      "type": "function"
    }
  ],
  "bytecode": "0x6060604052341561000f57600080fd5b610c1d8061001e6000396000f3006060604052600436106100af576000357c0100000000000000000000000000000000000000000000000000000000900463ffffffff1680631d4cf6c4146100b45780631e401616146100e0578063499b67d91461012f578063840d4d371461017e578063a2a070c3146101d6578063af026a9014610244578063ba39f4a51461028f578063da5d2348146102e7578063dc02e70d14610348578063eae5496714610397578063efc33f1e146103ef575b600080fd5b6100ca6004808035906020019091905050610450565b6040518082815260200191505060405180910390f35b610115600480803590602001909190803573ffffffffffffffffffffffffffffffffffffffff16906020019091905050610461565b604051808215151515815260200191505060405180910390f35b610164600480803590602001909190803573ffffffffffffffffffffffffffffffffffffffff169060200190919050506105d7565b604051808215151515815260200191505060405180910390f35b6101bc600480803590602001909190803590602001909190803573ffffffffffffffffffffffffffffffffffffffff1690602001909190505061065b565b604051808215151515815260200191505060405180910390f35b61022a600480803590602001909190803573ffffffffffffffffffffffffffffffffffffffff1690602001909190803573ffffffffffffffffffffffffffffffffffffffff169060200190919050506107da565b604051808215151515815260200191505060405180910390f35b610279600480803590602001909190803573ffffffffffffffffffffffffffffffffffffffff16906020019091905050610801565b6040518082815260200191505060405180910390f35b6102a560048080359060200190919050506108a7565b604051808273ffffffffffffffffffffffffffffffffffffffff1673ffffffffffffffffffffffffffffffffffffffff16815260200191505060405180910390f35b61030660048080359060200190919080359060200190919050506108dd565b604051808273ffffffffffffffffffffffffffffffffffffffff1673ffffffffffffffffffffffffffffffffffffffff16815260200191505060405180910390f35b61037d600480803590602001909190803573ffffffffffffffffffffffffffffffffffffffff1690602001909190505061093d565b604051808215151515815260200191505060405180910390f35b6103ad6004808035906020019091905050610996565b604051808273ffffffffffffffffffffffffffffffffffffffff1673ffffffffffffffffffffffffffffffffffffffff16815260200191505060405180910390f35b61040e60048080359060200190919080359060200190919050506109c3565b604051808273ffffffffffffffffffffffffffffffffffffffff1673ffffffffffffffffffffffffffffffffffffffff16815260200191505060405180910390f35b600081600001805490509050919050565b60008260010160008373ffffffffffffffffffffffffffffffffffffffff1673ffffffffffffffffffffffffffffffffffffffff16815260200190815260200160002060009054906101000a900460ff16156104c057600090506105d1565b82600001805490508360020160008473ffffffffffffffffffffffffffffffffffffffff1673ffffffffffffffffffffffffffffffffffffffff168152602001908152602001600020819055508260000180548060010182816105239190610b74565b9160005260206000209001600084909190916101000a81548173ffffffffffffffffffffffffffffffffffffffff021916908373ffffffffffffffffffffffffffffffffffffffff1602179055505060018360010160008473ffffffffffffffffffffffffffffffffffffffff1673ffffffffffffffffffffffffffffffffffffffff16815260200190815260200160002060006101000a81548160ff021916908315150217905550600190505b92915050565b6000808360010160008473ffffffffffffffffffffffffffffffffffffffff1673ffffffffffffffffffffffffffffffffffffffff16815260200190815260200160002060009054906101000a900460ff1615156106385760009150610654565b6106428484610801565b905061064e84826109c3565b50600191505b5092915050565b6000838381600001805490508110151561067457600080fd5b8560010160008573ffffffffffffffffffffffffffffffffffffffff1673ffffffffffffffffffffffffffffffffffffffff16815260200190815260200160002060009054906101000a900460ff16156106d157600092506107d1565b8386600001868154811015156106e357fe5b906000526020600020900160006101000a81548173ffffffffffffffffffffffffffffffffffffffff021916908373ffffffffffffffffffffffffffffffffffffffff16021790555060018660010160008673ffffffffffffffffffffffffffffffffffffffff1673ffffffffffffffffffffffffffffffffffffffff16815260200190815260200160002060006101000a81548160ff021916908315150217905550848660020160008673ffffffffffffffffffffffffffffffffffffffff1673ffffffffffffffffffffffffffffffffffffffff16815260200190815260200160002081905550600192505b50509392505050565b60006107e684846105d7565b80156107f857506107f78483610461565b5b90509392505050565b60008260010160008373ffffffffffffffffffffffffffffffffffffffff1673ffffffffffffffffffffffffffffffffffffffff16815260200190815260200160002060009054906101000a900460ff16151561085d57600080fd5b8260020160008373ffffffffffffffffffffffffffffffffffffffff1673ffffffffffffffffffffffffffffffffffffffff16815260200190815260200160002054905092915050565b60008160008160000180549050141515156108c157600080fd5b6108d58360018560000180549050036108dd565b915050919050565b600082828160000180549050811015156108f657600080fd5b846000018481548110151561090757fe5b906000526020600020900160009054906101000a900473ffffffffffffffffffffffffffffffffffffffff169250505092915050565b60008260010160008373ffffffffffffffffffffffffffffffffffffffff1673ffffffffffffffffffffffffffffffffffffffff16815260200190815260200160002060009054906101000a900460ff16905092915050565b60008160008160000180549050141515156109b057600080fd5b6109bb8360006108dd565b915050919050565b600080600084848160000180549050811015156109df57600080fd5b6109e987876108dd565b9350600187600001805490500386141515610ab657610a07876108a7565b925060008760010160008573ffffffffffffffffffffffffffffffffffffffff1673ffffffffffffffffffffffffffffffffffffffff16815260200190815260200160002060006101000a81548160ff021916908315150217905550610a6e87878561065b565b50858760020160008573ffffffffffffffffffffffffffffffffffffffff1673ffffffffffffffffffffffffffffffffffffffff168152602001908152602001600020819055505b60018760000181818054905003915081610ad09190610ba0565b508660020160008573ffffffffffffffffffffffffffffffffffffffff1673ffffffffffffffffffffffffffffffffffffffff168152602001908152602001600020600090558660010160008573ffffffffffffffffffffffffffffffffffffffff1673ffffffffffffffffffffffffffffffffffffffff16815260200190815260200160002060006101000a81549060ff02191690558394505050505092915050565b815481835581811511610b9b57818360005260206000209182019101610b9a9190610bcc565b5b505050565b815481835581811511610bc757818360005260206000209182019101610bc69190610bcc565b5b505050565b610bee91905b80821115610bea576000816000905550600101610bd2565b5090565b905600a165627a7a723058201c99bcc2127a2f5c7f91494f229e25ebd690d83f3e1e7f693681bd1635f110180029",
  "source": "pragma solidity ^0.4.11;\n\n/// @title Library implementing an array type which allows O(1) lookups on values.\n/// @author Piper Merriam <pipermerriam@gmail.com>, Eric Olszewski <eolszewski@gmail.com>\n/// Adapted from https://github.com/ethpm/ethereum-indexed-enumerable-set-lib/blob/master/contracts/IndexedEnumerableSetLib.sol\nlibrary AddressSetLib {\n\n  struct AddressSet {\n    address[] values;\n    mapping(address => bool) exists;\n    mapping(address => uint) indices;\n  }\n\n  modifier inBounds(AddressSet storage self, uint index) {\n    require(index < self.values.length);\n    _;\n  }\n\n  modifier notEmpty(AddressSet storage self) {\n    require(self.values.length != 0);\n    _;\n  }\n\n  function get(AddressSet storage self, uint index) public view inBounds(self, index) returns (address) {\n    return self.values[index];\n  }\n\n  function set(AddressSet storage self, uint index, address value) public inBounds(self, index) returns (bool) {\n    if (self.exists[value])\n      return false;\n    self.values[index] = value;\n    self.exists[value] = true;\n    self.indices[value] = index;\n    return true;\n  }\n\n  function add(AddressSet storage self, address value) public returns (bool) {\n    if (self.exists[value])\n      return false;\n    self.indices[value] = self.values.length;\n    self.values.push(value);\n    self.exists[value] = true;\n    return true;\n  }\n\n  function remove(AddressSet storage self, address value) public returns (bool) {\n    if (!self.exists[value])\n      return false;\n    uint index = indexOf(self, value);\n    pop(self, index);\n    return true;\n  }\n\n  function pop(AddressSet storage self, uint index) public inBounds(self, index) returns (address) {\n    address value = get(self, index);\n\n    if (index != self.values.length - 1) {\n      address lastValue = last(self);\n      self.exists[lastValue] = false;\n      set(self, index, lastValue);\n      self.indices[lastValue] = index;\n    }\n    self.values.length -= 1;\n\n    delete self.indices[value];\n    delete self.exists[value];\n\n    return value;\n  }\n\n  function replace(AddressSet storage self, address old, address nu) public returns (bool) {\n    return remove(self, old) && add(self, nu);\n  }\n\n  function first(AddressSet storage self) public view notEmpty(self) returns (address) {\n    return get(self, 0);\n  }\n\n  function last(AddressSet storage self) public view notEmpty(self) returns (address) {\n    return get(self, self.values.length - 1);\n  }\n\n  function indexOf(AddressSet storage self, address value) public view returns (uint) {\n    require(self.exists[value]);\n    return self.indices[value];\n  }\n\n  function contains(AddressSet storage self, address value) public view returns (bool) {\n    return self.exists[value];\n  }\n\n  function size(AddressSet storage self) public view returns (uint) {\n    return self.values.length;\n  }\n}\n",
  "sourcePath": "/usr/src/app/node_modules/transmute-framework/contracts/TransmuteFramework/SetLib/AddressSet/AddressSetLib.sol",
  "compiler": {
    "name": "solc",
    "version": "0.4.18+commit.9cf6e910.Emscripten.clang"
  },
  "schemaVersion": "1.0.1",
  "updatedAt": "2017-12-19T05:39:39.884Z"
}